:020000040800F2
:10000000580D00209D010008E72100081D20000870
:10001000E5210008D1020008712800080000000056
:100020000000000000000000000000006D24000837
:100030004B04000800000000092200086F2400089B
:10004000B7010008B7010008B7010008B7010008B0
:10005000B7010008B7010008B7010008B7010008A0
:10006000B7010008B7010008B7010008B701000890
:10007000B7010008B7010008B7010008B701000880
:10008000B7010008B701000809020008B70100081D
:10009000B7010008B7010008B7010008B701000860
:1000A000B7010008B7010008B7010008B701000850
:1000B000B7010008B7010008B7010008B701000840
:1000C000B7010008B7010008B7010008B701000830
:1000D000B7010008B7010008B7010008B701000820
:1000E000B7010008B7010008B7010008B701000810
:1000F000B7010008B7010008000000000000000080
:100100000000000000000000B7010008B70100086F
:100110000000000000000000B7010008B70100085F
:10012000B7010008B70100084503000849030008AB
:10013000B7010008B7010008FD220008B701000858
:10014000B7010008000000000000000000000000EF
:10015000000000000000000000000000000000009F
:100160000000000000000000B7010008B70100080F
:10017000B701000800000000B701000800000000FF
:1001800000000000B7010008DFF80CD000F02AF8EA
:100190000048004791280008580D00200648804775
:1001A00006480047FEE7FEE7FEE7FEE7FEE7FEE75C
:1001B000FEE7FEE7FEE7FEE7F924000889010008F4
:1001C000D2B201E000F8012B491EFBD27047002299
:1001D000F6E710B513460A4604461946FFF7F0FF46
:1001E000204610BD064C074D06E0E06840F00103D4
:1001F00094E8070098471034AC42F6D3FFF7C8FFE5
:10020000F82F000818300008014800F0E5BA000097
:100210002C00002070B5044600688168C943C907F6
:100220001CD1816821F00101816000F095FE054636
:100230000FE000BF00F090FE401B022809D9A06A21
:1002400040F01000A062E06A40F00100E06201208E
:1002500070BD20688068C043C007EBD0002070BD2F
:10026000F8B500260446009600688168C943C907AE
:1002700028D0816841F0010181601348134900686A
:10028000B0FBF1F000E0401E00900028FBD100F030
:1002900063FE054611E000BF00F05EFE401B022831
:1002A0000BD9A06A40F01000A062E06A40F00100A3
:1002B000E06284F824600120F8BD20688068C043B3
:1002C000C007E9D10020F8BD2800002040420F00FF
:1002D000FEE7000070B5194800F056FC0028FAD17E
:1002E000461E3146154800F0B1FB144800F071FA83
:1002F000134C4FF09045E0601CE0104800F044FCC7
:100300000028FAD131460D4800F0A0FB0B4800F060
:1003100060FA0122E0601146284600F017FE022034
:1003200000F03EFD00220121284600F00FFE0520CE
:1003300000F036FDE068DC28DFDC70BD2C0000201A
:10034000000000207047000070B5224800F075FCE6
:100350002048443801F0E6FC1E4CB43420682049A3
:1003600000B200EE100AF8EE400A9FED1B0A20EEE4
:10037000801ADFED1A0AC1EE201ABCEEE11A11EE66
:10038000100A086000204FF4007200BF54F82030BB
:100390000D681BB201EE103AB8EE411A21EE001AB8
:1003A000C1EE201ABCEEE11A11EE103AAB4200D9B0
:1003B0000B60401C9042E9DB0649B431A1F1F80022
:1003C00001F06AFC002803D0BDE8704000F03EB8A0
:1003D00070BD0000A000002000404E4500FEFF461A
:1003E000000000200B4B01681422994207D20A4BEF
:1003F0001944B1FBF2F189000164084908E0054B9A
:100400005B421944B1FBF2F18900016401490839EA
:10041000C163704708040240F8FFFDBF00000240BE
:1004200030B590F840500124AC40C56B6C60046856
:1004300063604368102B036803D099600068C26052
:1004400030BD9A600068C16030BD70470122022152
:100450004FF0904000F07ABDF8B5002504460095B5
:1004600090F82400012808D0012084F824002046B8
:10047000FFF7D0FE060002D045E00220F8BDA06ADA
:1004800020F4885040F00200A062009801E0401C77
:100490000090FF28FBD92046FFF7E2FE2068816824
:1004A00041F00801816000F057FD074605E000BFFC
:1004B00000F052FDC01B0A2811D820688068000790
:1004C000F6D42068816841F00401816000F044FDA9
:1004D00007460EE000F040FDC01B0A2809D9A06ABB
:1004E00020F0020040F01000A06284F824500120A7
:1004F000F8BD206880684007ECD4A06A20F00200B4
:1005000040F00100A06284F824503046F8BD00009D
:10051000F8B50022009290F8244083681746012C19
:100520001CD0012480F82440D3B14D680B691F24EE
:100530009D4226D81E055B1BC3F103030D6803EB28
:1005400083039D40A6F580162E439C40036844F427
:1005500040159C6BAC4326439E631EE00220F8BD11
:100560004B68012B05D0826A42F020028262012290
:1005700013E003689C6B0D686FF3150444EAC534FF
:100580000AE05B1BC3F1030303EB83039C40036896
:1005900044F440159C6BAC439C6303689C68E44343
:1005A000E40706D09C6847F20105AC43CD692C43B3
:1005B0009C608B69012B08D1CB69B3F5E04F08D063
:1005C000826A42F02002826201224B69012B06D02E
:1005D0000CE003685C6844F480645C60F5E78B6958
:1005E000A3B1826A42F02002826201220B680724D2
:1005F00005680A2B10D9EE680A3B03EB43039C40C5
:10060000A6438C689C402643EE600EE003685C685D
:1006100044F480545C60E9E72E6903EB43039C409B
:10062000A6438C689C4026432E614B68012B12D058
:10063000022B18D0032B03681DD01C6ACD686FF302
:100640000B042C431C620B68102B1BD0112B19D0F0
:10065000122B30D034E003685C69CD686FF30B0473
:100660002C435C61EFE703689C69CD686FF30B0472
:100670002C439C61E7E7DC69CD686FF30B042C43E6
:10068000DC61E0E703689C68240219D49C6844F4A8
:1006900000049C600968102912D10B490B4B0968B2
:1006A000B1FBF3F101EB8101490000E0491E00912B
:1006B0000029FBD104E006490B6843F080730B600E
:1006C00080F824701046F8BD2800002040420F003A
:1006D0000000014070470000F8B50024009490F835
:1006E00024202546012A12D0012280F824204A68BD
:1006F0001F23072A0DD20668776B521E02EB820277
:1007000093409F430B6893401F43776319E0022097
:10071000F8BD06680D2A0AD2376BD21F02EB82029F
:1007200093409F430B6893401F43376309E0F76A88
:100730000D3A02EB820293409F430B6893401F43A4
:10074000F7620A68072306680A2A0AD9F7680A3A8C
:1007500002EB420293409F438B6893401F43F76034
:1007600008E0376902EB420293409F438B68934055
:100770001F4337610A68102A04D0112A02D0122AB6
:1007800016D01AE00268936843F400039360096886
:10079000102912D10B490C4A0968B1FBF2F101EBA7
:1007A0008101490000E0491E00910029FBD104E0CD
:1007B00006490A6842F080720A6080F82450204698
:1007C000F8BD00002800002040420F00000001405A
:1007D00070470068C06C704710B5044600684168F7
:1007E000890626D50168890723D5A16AC90603D4DD
:1007F000A16A41F40071A1628168C1F342410729F5
:1008000010D1E16871B9416821F020014160A06A0E
:1008100020F48070A062A06AC00403D4A06A40F0F3
:100820000100A0622046FFF7D3FF21686FF012009D
:1008300008602068416809062ED5016849072BD554
:10084000A16AC90603D4A16A41F40051A16281687A
:10085000C1F30231072909D04168490515D48168DF
:10086000C1F34241072910D1E16871B9416821F013
:1008700080014160A06A20F48050A062A06AC00597
:1008800003D4A06A40F00100A0622046FFF722FFD7
:1008900021686FF00C0008602068416849060DD59A
:1008A0000068C0070AD0A06A40F48030A0622046E9
:1008B00000F094F821686FF00100086010BD00009E
:1008C0002DE9F0414FF0000704003D467ED0A06ABC
:1008D000002628B9E66284F82460204600F080F8FB
:1008E0002046FFF797FCA16AC90600D420B1A06A90
:1008F00040F01000A06269E0A16A21F4885141F043
:100900000201A1626268E169E3680A4347EA4301C0
:100910000A43A1684FF48077B94209D0012907D072
:100920005FF00001D4F814C0BCF1010F02D00AE05E
:100930003946F7E7F3B1A36A43F02003A362E36A01
:1009400043F00103E3622368D3F804C02CF4694C3C
:100950004CEA010CC3F804C021688B68DFF870C052
:1009600003EA0C0313438B60A168B9420BD0012941
:1009700009D00CE0DFF85CC0A3690CEB43330B43F8
:1009800043F40061DFE7218A0D05A5F58015216894
:10099000CB6A23F470032B43CB62216889680E4B2A
:1009A0001940914208D1E662A16A21F0020141F0AA
:1009B0000101A162BDE8F081A06A20F0020040F0D0
:1009C0001000A062E06A40F00100E0620120F1E75F
:1009D000FDF7E1FF00E0FFFFFE0E1FFF7047000084
:1009E00010B586B0044614216846FFF7F0FB1549A0
:1009F0002068884223D11448816941F400718161E3
:100A0000816901F400710591416941F4003141614E
:100A10004069694600F400300590282000900320CA
:100A20000190002002904FF0904000F0CBF900229E
:100A30001146122000F0F2FA122000F0E3FA06B09C
:100A400010BD000000240140001002402DE9F047D5
:100A5000044600680D4600268068B046C00508D5EB
:100A6000A06A40F02000A06284F824800120BDE844
:100A7000F08700F071FA814620684168C90503D407
:100A8000C16A11F4700F12D03C494A68496812F4E7
:100A9000404F11D0C90413D4202112E0681C06D0A5
:100AA000A5B300F059FAA0EB0900A8423ED820688F
:100AB00000688007F2D544E08904EDD4022100E00B
:100AC000802107692E4A17424FEA62024FEAA213B9
:100AD0000DD1C7684FEA621C17EA0C0F07D10769EE
:100AE000174214D1C068184211D1142012E00769CE
:100AF000174202D1C2681A4206D00369214A134242
:100B000007D1C068104204D1542003E00EE0292030
:100B100000E0FC2010FB01F711E0681C0ED02DB1A5
:100B200000F01AFAA0EB0900A84207D9A06A40F029
:100B30000400A06284F82480032098E7761CBE425B
:100B4000EBD321686FF012000860A06A40F40070D7
:100B5000A06220688068C0F3424007280CD1E0689A
:100B600050B9A06A20F48070A062A06AC00403D4C7
:100B7000A06A40F00100A062002078E70010024067
:100B8000244992244992240010B5044690F8240088
:100B9000012808D0012084F824002046FFF760FBDC
:100BA000010002D02CE0022010BDA06A40F2012218
:100BB000904340F48070A06220684268520505D5D9
:100BC000A26A22F4005242F48052A262A26AD304C2
:100BD0004FF0000204D5E36A23F00603E36200E06D
:100BE000E26284F824206FF00202026020688268CA
:100BF000C2F34242072A826804D042F48012826023
:100C0000084610BD42F4A002F9E701680A6822F024
:100C10000E020A6001680A6822F001020A6090F878
:100C20004020C36B012101FA02F25A6080F82110C2
:100C3000002180F8201008467047F0B4C16B0D68A1
:100C400001680C68066C042202FA06F32B420FD0EE
:100C500063070DD50B689B0603D40B6823F00403D0
:100C60000B6090F840108A40C16B4A60C16A1BE07B
:100C7000022303FA06F72F424FF0000C4FF0010257
:100C800016D0A70714D50C68A40605D40C6824F068
:100C90000A040C6080F8212090F840108B40C16B52
:100CA0004B6080F820C0816A002918D0F0BC08474A
:100CB0000823B3402B4212D0230710D50B6823F032
:100CC0000E030B6090F84010C36B02FA01F15960FB
:100CD000826380F8212080F820C0016BE4E7F0BC3B
:100CE000704770B5040021D0022084F821002268EA
:100CF000116843F6F0708143D4E901031843D4E945
:100D000003352B43184363691843A3691843E36908
:100D10001843084310602046FFF764FB0020A063DF
:100D2000012184F8211084F8200070BD012070BDDD
:100D300070B5044690F82000002501280CD0012051
:100D400084F8200094F821600020012E06D084F859
:100D500020000225284670BD022070BD022684F8BE
:100D60002160A0632068066826F001060660204620
:100D7000FFF756FBE06A00282068016802D041F0C6
:100D80000E0106E041F00A0101602068016821F0CF
:100D9000040101602068016841F001010160D9E7A8
:100DA00070B5044600F0D8F80546601C02D004482F
:100DB0000078044400F0D0F8401BA042FAD370BD84
:100DC0001C0000202DE9F84FDFF864B100234FF03C
:100DD000010C4FF0030A4FF00F090BF1040EA0E0D5
:100DE0000CFA03F6324072D04C68022C01D0122C5F
:100DF0000ED1DC0800EB8408D8F820405D07EF0E28
:100E000009FA07F5AC430D69BD402543C8F82050E9
:100E100007685D0091F804800AFA05F408F00308F9
:100E2000A74308FA05F848EA0708C0F800804F68A9
:100E3000012F05D0022F03D0112F01D0122F11D175
:100E40008768D1F80C80A74308FA05F848EA070834
:100E5000C0F808804768B7430E79C6F300169E4075
:100E60003E434660C668A6438C68AC403443C460C9
:100E70004C68E40054D52F4CA56945F00105A561E7
:100E8000A46923F0030504F0010400942A4C2E19F0
:100E9000B4689D072F0F09FA07F5AC43B0F1904FE6
:100EA00004D0264DA84203D1012512E0002510E010
:100EB000234DA84201D102250BE0224DA84201D1C9
:100EC000032506E0204DA84202D1042501E027E0D9
:100ED0000525BD402543B560DBF800405D464E6802
:100EE0009443F60300D514432C60DEF800407546A9
:100EF0004E689443B60300D514432C600C4D08355E
:100F00002C684E689443F60200D514432C60084DBB
:100F10000C352C684E689443B60200D514432C60FF
:100F20005B1C0A6832FA03F47FF45AAFBDE8F88F0D
:100F3000000401400010024000000140000400488D
:100F400000080048000C0048001000480AB1816108
:100F50007047816270470000014880687047000058
:100F60001C000020024881680278114481607047AB
:100F70001C000020074810B5016841F01001016015
:100F8000032000F06BF8002000F006F800F024F8D1
:100F9000002010BD0020024070B50D4D04464FF4F6
:100FA0007A712878B1FBF0F00A490968B1FBF0F0DA
:100FB00000F0AAFF48B9102C07D200222146501E8B
:100FC00000F02CF800206C6070BD012070BD0000A6
:100FD0001C00002028000020094808B5816941F064
:100FE00001018161816901F001010091C16941F054
:100FF0008051C161C06900F08050009008BD0000C0
:101000000010024000F01F020121914040098000C1
:1010100000F1E020C0F8001170470000F0B40E4B62
:101020001B680C46C3F30223C3F10705042D00D946
:101030000425191D072901D2002300E0DB1E01262B
:1010400006FA05F1491E214099409E40761E164041
:101050003143F0BC01F0C8B80CED00E0064900F0E7
:10106000070208684FF6FF03184040EA0220034ACF
:1010700010430860704700000CED00E00000FA0526
:10108000074908B5CA6942F08052CA61C96901F0CE
:101090008051009103490A6802430A6008BD0000BC
:1010A00000100240007000402DE9F84F054600682E
:1010B0006E4CC0036FD5E0690026C00008D4E0691B
:1010C00040F08050E061E069012600F0805000901F
:1010D00067480168C90512D40168804641F48071EF
:1010E0000160FFF739FF074605E000BFFFF734FF57
:1010F000C01B642835D8D8F80000C005F6D5206A92
:1011000010F4407053D0A98801F4407181424ED050
:10111000206A4FF4803191FAA1F2B2FA82F297007C
:10112000544A4FF00108174420F44070C7F8008477
:1011300091FAA1F1B1FA81F102EB81010023C1F82A
:1011400000342062C00732D0FFF706FF074641F2A5
:10115000883A4FF0020907E0FFF7FEFEC11B514538
:1011600002D90320BDE8F88F99FAA9F1B1FA81F10B
:1011700041F040014846B8EB511F01D121680CE015
:1011800090FAA0F1B1FA81F141F04001B0EB511FAA
:1011900002D1216A01E015E0616A99FAA9F0B0FA7A
:1011A00080F000F01F0008FA00F21142D4D0206A4B
:1011B000696820F44070084320621EB1E06920F0A5
:1011C0008050E0612878C00705D0206BA96820F026
:1011D0000300084320632878800705D5206BE96861
:1011E00020F44030084320632878400705D5206B61
:1011F000296920F44020084320632878800605D51B
:10120000206B696920F01000084320632868800380
:1012100005D56068A96A20F48000084360602878DA
:10122000400605D5206BA96920F020000843206303
:101230002878000605D56068E96920F44040084335
:1012400060602888000505D56068296A20F078402C
:10125000084360602888400505D5206B696A20F046
:1012600040000843206300207CE70000001002409B
:1012700000700040000042422DE9F0470F46050093
:1012800069D04A4E306800F00700B84209D2306891
:1012900020F0070038433060306800F00700B842A3
:1012A00059D12878424C800705D56068A96820F09C
:1012B000F000084360602878C0073DD069680120CD
:1012C00001290DD0022923D05FF0020393FAA3F283
:1012D000B2FA82F242F02002520904D0226803E0FE
:1012E0004FF40033F2E7626A93FAA3F3B3FA83F39D
:1012F00003F01F03984002422DD0606820F00300E5
:1013000008436060FFF728FE804641F288390CE010
:101310004FF00073DAE700BFFFF71EFEA0EB0801F5
:10132000494502D90320BDE8F0876068696800F08C
:101330000C00B0EB810FEFD1306800F00700B8422D
:101340000BD9306820F0070038433060306800F077
:101350000700B84201D00120E5E72878400705D50D
:101360006068E96820F4E06008436060287800075E
:1013700006D56068296920F4605040EAC1006060C9
:1013800000F04CF86168F02292FAA2F201F0F0014C
:10139000B2FA82F2D140074A515CC840064908605F
:1013A0000020FFF7F9FD0020BDE70000002002400B
:1013B00000100240E02F00082800002008480949DA
:1013C000006849684FF4E06292FAA2F201F4E06129
:1013D000B2FA82F2D140044A515CC8407047000022
:1013E0002800002000100240F02F0008084809499A
:1013F000006849684FF4605292FAA2F201F4605119
:10140000B2FA82F2D140044A515CC84070470000F1
:101410002800002000100240F02F0008144B10B5E7
:101420005A68144802F00C0104291DD008291BD168
:101430004FF4701494FAA4F402F47011B4FA84F422
:10144000E1400D4CDB6A615C0F2494FAA4F403F0D4
:101450000F03B4FA84F4E340074C1034D203E35C86
:1014600003D5B0FBF3F0484310BD0448484310BD1A
:101470000010024000127A00C02F000800093D0051
:101480002DE9F84F040071D02078FB4DC0074FF0D4
:10149000010625D068687704C0F38100012807D0D1
:1014A0006868C0F3810002281BD16868C00318D5A2
:1014B00097FAA7F0B0FA80F040F02000400901D080
:1014C000286800E0686A97FAA7F1B1FA81F101F0A3
:1014D0001F0106FA01F1084265D060680028D2D0E9
:1014E00061E06068B0F5803F0BD010B1B0F5A02F7F
:1014F00017D0286820F480302860286820F48020E5
:1015000002E0286840F480302860E86AA16820F092
:101510000F000843E862606820B3FFF71DFD8046B6
:101520000AE0286840F480202860EAE7FFF714FD0D
:10153000A0EB0800642872D897FAA7F0B0FA80F000
:1015400040F02000400901D0286800E0686A97FA5E
:10155000A7F1B1FA81F101F01F0106FA01F1084289
:10156000E4D020E0FFF7F8FC804607E0C7E000BFCA
:10157000FFF7F2FCA0EB08006428DCD897FAA7F08C
:10158000B0FA80F040F02000400901D0286800E067
:10159000686A97FAA7F1B1FA81F101F01F0106FA22
:1015A00001F10842E4D12078DFF8D08280074FF0C3
:1015B000000A4FF0020759D568684FF0F80B10F099
:1015C0000C0F07D06868C0F3810002281BD168683F
:1015D000C00318D497FAA7F0B0FA80F040F02000CA
:1015E000400901D0286800E0686A97FAA7F1B1FACB
:1015F00081F101F01F0106FA01F108422BD02069A8
:1016000001287CD127E0206988B396FAA6F0B0FAC9
:1016100080F048F82060FFF79FFC814606E055E126
:10162000FFF79AFCA0EB0900022884D897FAA7F0EC
:10163000B0FA80F040F02000400901D0286800E0B6
:10164000686A97FAA7F1B1FA81F101F01F0106FA71
:1016500001F10842E4D028689BFAABF26169B2FA62
:1016600082F220F0F80091400843286025E0FFE76F
:1016700096FAA6F1B1FA81F148F821A0FFF76CFCC7
:10168000814605E0FFF768FCA0EB09000228CCD8F2
:1016900097FAA7F0B0FA80F040F02000400901D09E
:1016A000286800E0686A97FAA7F1B1FA81F101F0C1
:1016B0001F0106FA01F10842E4D1207800076AD53B
:1016C000A069A0B396FAA6F0B0FA80F008EB80000B
:1016D000C0F88064FFF740FC814605E0FFF73CFC62
:1016E000A0EB09000228A0D897FAA7F0B0FA80F082
:1016F00040F06000B6EB501F02D128680CE077E1A3
:1017000097FAA7F0B0FA80F040F06000B7EB501FF6
:1017100001D1286A00E0686A97FAA7F1B1FA81F16D
:1017200001F01F0106FA01F21042D7D033E0FFE7C3
:1017300096FAA6F0B0FA80F008EB8000C0F880A41A
:10174000FFF70AFC814605E0FFF706FCA0EB090065
:1017500002289CD897FAA7F0B0FA80F040F0600019
:10176000B6EB501F01D128680BE097FAA7F0B0FA4A
:1017700080F040F06000B7EB501F01D1286A00E014
:10178000686A97FAA7F1B1FA81F101F01F0106FA30
:1017900001F21042D8D12078400774D5E8694FF0A3
:1017A0000009C00009D4E86940F08050E861E869A8
:1017B0004FF0010900F08050009031480168C905E0
:1017C00012D4016841F480710160FFF7C5FB8346C4
:1017D00006E000BFFFF7C0FBA0EB0B00642875D844
:1017E00027480068C005F5D5E06801280AD008B18F
:1017F000052811D0286A20F001002862286A20F00C
:10180000040002E0286A40F001002862E068C8B3E2
:10181000FFF7A2FB83460DE0286A40F0040028622F
:10182000F0E700BFFFF798FBA0EB0B0141F2883017
:1018300081424BD897FAA7F0B0FA80F040F0400010
:10184000B6EB501F01D128680BE097FAA7F0B0FA69
:1018500080F040F04000B7EB501F01D1286A00E053
:10186000686A97FAA7F1B1FA81F101F01F0106FA4F
:1018700001F21042D6D035E0001002400000424292
:101880000070004000E034E0FFF766FB834607E0AD
:10189000FFF762FBA0EB0B0141F28830814215D8C3
:1018A00097FAA7F0B0FA80F040F04000B6EB501F76
:1018B00001D128680CE097FAA7F0B0FA80F040F068
:1018C0004000B7EB501F02D1286A01E083E0686A4C
:1018D00097FAA7F1B1FA81F101F01F0106FA01F2BE
:1018E0001042D5D1B9F1000F03D0E86920F0805043
:1018F000E861E06980B36968C1F38101022977D0AA
:101900004FF080714F00022809D091FAA1F0B0FA8F
:1019100080F048F820A0FFF71FFB04465EE0504629
:101920008A4691FAA1F1B1FA81F1C14648F8210045
:10193000FFF712FB804605E0FFF70EFBA0EB080067
:10194000022848D897FAA7F0B0FA80F040F02000BB
:10195000400902D0286801E056E0686A97FAA7F1CA
:10196000B1FA81F101F01F0106FA01F10842E3D159
:10197000D4E908100843696821F4741108436860C9
:101980009AFAAAF0B0FA80F049F82060FFF7E4FA7A
:10199000044604E0FFF7E0FA001B02281BD897FA80
:1019A000A7F0B0FA80F040F02000400901D028688C
:1019B00000E0686A97FAA7F1B1FA81F101F01F011E
:1019C00006FA01F10842E5D01EE000BFFFF7C4FAB5
:1019D000001B022802D90320BDE8F88F97FAA7F070
:1019E000B0FA80F040F02000400902D0286801E001
:1019F0000CE0686A97FAA7F1B1FA81F101F01F01D2
:101A000006FA01F10842E1D10020E5E70120E3E711
:101A10002DE9F041044690F83C00002516460F469B
:101A2000012801D0012520E0204600F07FFC20B1F4
:101A3000FF2084F83C00032517E00D4887420FD0B3
:101A40002068390C026C1F2303EA810103238B40B9
:101A50009A4302642068026C8E403243026401E0C3
:101A600020684664204600F07AFC2846BDE8F081F4
:101A700000010800704770B5044690F83C0000254E
:101A80000E46012802D00125284670BD204600F0F0
:101A90004DFC20B1FF2084F83C000325F4E72068CA
:101AA000416821F00601416020684168314341608E
:101AB000204600F054FC2068416841F0100141606C
:101AC000022084F83C00DFE77047704770B5044699
:101AD000006881680268120717D50A0715D52046E5
:101AE000FFF7F2FFA06900280ED1A06A00280BD1F1
:101AF0002068016821F01801016094F83C00032877
:101B000026D0042084F83C0070BD0268920721D5DD
:101B10008A071FD5204600F0BDF8606A401E60624B
:101B200001D1206A6062E0690028EDD1E06A0028F6
:101B3000EAD1D4E908018142E6D12068016821F0A8
:101B40000601016094F83C00042801D00320D9E785
:101B50000120D7E702684FF00105D20710D0CA076D
:101B60000ED0016821F0010101602068C16841F0D8
:101B70000101C1602046FFF77DFF84F83C5070BD35
:101B80000268D20607D5CA0605D5C16841F0100122
:101B9000C16025640AE002685207F0D54907EED516
:101BA000C16841F00401C160022020642046FFF7B3
:101BB0008CFF70BD70B5040044D000200125A061E9
:101BC000C4E90705C4E909506903C4E90B0160636E
:101BD000A0632064204600F0C1F82068016821F469
:101BE000E0510160E1686068084321680A681043B9
:101BF00008602068416821F0807141602068416878
:101C0000A2681143416010480168226901F44071E3
:101C100091420AD0016821F4407101600168226993
:101C2000114301600220FFF7BBF82068416841F0D2
:101C300001014160206881680904FCD484F83C50AB
:101C4000002070BD012070BD0060014030B590F8EB
:101C50003C300024DBB1FF2B19D005688BB26B61DF
:101C60000368012A5D680FD025F020055D60C26120
:101C700000228BB21146DD0700D0521C5B08491CC4
:101C80000929F8D3026203E045F02005EEE70124BC
:101C9000204630BD7047704770B5044600680D4659
:101CA0000068800301D5012070BDE06A30B9E069A9
:101CB00020B96069806990B12028F4D094F83C0084
:101CC000012801D00328EED1616913488862616957
:101CD0001248086360698169202904D005E0206A00
:101CE0009042E0D3EAE70E49C1622068016841F4FE
:101CF00080310160216813462A4660316069FFF730
:101D000017F818B1FF2084F83C00CCE72046BDE866
:101D1000704000F02ABB00001723000809230008C8
:101D20002123000810B5044690F83C00042803D095
:101D3000052801D0012010BD2068016821F4803100
:101D400001606069FEF761FF18B1FF2084F83C0074
:101D5000F0E72046BDE8104000F038BB70B586B013
:101D6000054614216846FEF732FA1F492868884262
:101D700038D11E49886940F000708861886900F098
:101D800000700590486940F40010486148690026D9
:101D900000F400100590481500900320CDE90106DD
:101DA00069461348FFF70EF8134C1248C4E90006C1
:101DB0008020C4E902604000206180006061202032
:101DC000C4E906062046FEF78CFF08B1FEF73EFB8D
:101DD0006C61002211463E206562FFF71FF93E202C
:101DE000FFF710F906B070BD00640140001002401A
:101DF0000010004844040240A000002070B50446D2
:101E000090F83C000D46022801D0012070BDFFF77C
:101E1000A3F8064607E0681C05D0FFF79DF8801B75
:101E2000A8420ED86DB120688068C007F3D0206842
:101E3000C16841F00101C160012084F83C0000202C
:101E400070BD032070BD2DE9F041064690F83C00BE
:101E5000002514460F46012801D0012518E0304620
:101E600000F064FA20B1FF2086F83C0003250FE063
:101E70002021306801EB87010144D4E900021043BE
:101E8000D4E902231A4310430860304600F067FA91
:101E90002846BDE8F08170B5044690F83C00002566
:101EA0000E46012802D00125284670BD204600F0CC
:101EB0003DFA20B1FF2084F83C000325F4E72068B8
:101EC000416821F040014160206841683143416030
:101ED000204600F044FAE7E710B50246094C1368C3
:101EE0000020A34201D1012907D092F83C30012BF8
:101EF00005D0022B03D0032B01D0012010BDD162ED
:101F000010BD00000060014010B5401EB0F1807FA0
:101F100001D3012010BD4FF0E02460610F21601754
:101F200000F062F90020A06107202061002010BDB0
:101F300010B5040003D094F8690010B107E0012047
:101F400010BD002084F86800204600F027F8242007
:101F500084F869002068016821F0010101602046D1
:101F600000F090FB0128EBD0606A10B1204600F031
:101F7000F7FA2068416821F4904141602068816847
:101F800021F02A0181602068016841F001010160AF
:101F90002046BDE8104000F047BB0000F0B587B018
:101FA000044614216846FEF712F919492068884250
:101FB0002BD11848C16941F40031C161C16901F4F4
:101FC00000310591416941F400314161416901F4F9
:101FD00000310591416941F4802141614069022449
:101FE00000F48020059004200025032607278DE8B3
:101FF000F10069464FF09040FEF7E4FE10208DE8B6
:10200000F10069460448FEF7DDFE07B0F0BD0000B0
:10201000004400400010024000040048FEE70000B9
:1020200030B58BB0002408940994202168460A94A6
:10203000FEF7CDF81748164901258460C460446155
:10204000016005614FF460214460C161FEF738FC16
:1020500008B1FEF7FBF90320CDE9080508A90A94A9
:102060000C48FEF739FB08B1FEF7F0F905200090A7
:102070000494CDE9015406940594694605480394F7
:10208000FEF746FA002801D0FEF7E0F90BB030BDAC
:10209000002401402C00002010B586B014216846B1
:1020A000FEF795F81A48416941F4800141614169A0
:1020B00001F480010591416941F4003141614169B8
:1020C00001F400310591416941F400114161416918
:1020D00001F400110591416941F480214161406999
:1020E0004FF0904400F48020059000220321204608
:1020F000FEF72CFF0320009001200021CDE9010113
:10210000039169462046FEF75DFE06B010BD000053
:10211000001002407FB500242148009401940294ED
:102120001E490394C0E900144FF440718460C0E973
:102130000341C462FFF73EFD08B1FEF787F90021B5
:102140001748FFF7A8FE08B1FEF780F900211448F0
:10215000FFF7C2FE08B1FEF779F9124D01222946B8
:102160000F48FFF773FD08B1FEF770F94FF04060BC
:10217000CDE9000402946A46002109480394FFF760
:1021800062FE08B1FEF762F9002229460448FFF713
:102190003FFC002801D0FEF759F97FBD00640140E3
:1021A0005C000020800007000D4810B50B4901605D
:1021B0004FF4E1314160002181600C22C160C0E92F
:1021C00004128161C16101624162FFF7B1FE002822
:1021D00003D0BDE81040FEF739B910BD00440040FF
:1021E000E4000020FEE770470907090E002806DA20
:1021F00000F00F0000F1E02080F8141D704700F19E
:10220000E02080F800147047704700002DE9F0418D
:1022100005461A48FEF7B8FC0028FAD1471E394691
:102220001648FEF713FC1548FEF7D3FA144C4FF08E
:10223000904660611CE01148FEF7A6FC0028FAD128
:1022400039460E48FEF702FC0C48FEF7C2FA01229E
:10225000606111463046FEF779FE0320FEF7A0FDCF
:10226000002201213046FEF771FE0A20FEF798FD9C
:102270006069A842DFDCBDE8F08100002C0000208E
:10228000000000202DE9F04105461A48FEF77CFCCD
:102290000028FAD1471E39461648FEF7D7FB1548E5
:1022A000FEF797FA144C4FF0904620611CE011485D
:1022B000FEF76AFC0028FAD139460E48FEF7C6FB45
:1022C0000C48FEF786FA2061012202213046FEF713
:1022D0003DFE0320FEF764FD002202213046FEF79A
:1022E00035FE0A20FEF75CFD2069A842DFDBBDE871
:1022F000F08100002C000020000000200148FFF7C2
:10230000E5BB00005C00002010B5406A03210164B9
:10231000FFF7DBFB10BD10B5406AFFF7BBFC10BD3B
:1023200010B5406AFFF7B7FC10BD000070B5044659
:102330000068016841F000410160FEF70DFE0546AE
:1023400007E000BFFEF708FE401BC82801D90320A4
:1023500070BD206880680028F4DA002070BD006835
:10236000016821F000410160704770B50446006AC1
:102370006062E06A002540B12046FFF7D7FF50B108
:10238000FF2084F83C00032517E02068416841F4F1
:10239000004141600AE0E06A012820680FD04168EE
:1023A000226B114341602046FFF7D9FF94F83C00AF
:1023B000012809D0052084F83C00284670BD01683A
:1023C00041F480410160EEE70420F4E7F8B50446EB
:1023D000C069012806D12068016E0091416821F092
:1023E00020014160FEF7B8FD0546FF2605E000BF6D
:1023F000FEF7B2FD401BC82809D820688068800419
:10240000F6D4E06A90B12046FFF790FF18B184F847
:102410003C600320F8BDE06A012820680AD04168CA
:1024200021F4C04141602046FFF799FFE06901288F
:1024300005D009E0016821F480410160F3E72068DC
:10244000416841F0200141602068016E0091C1683F
:1024500041F00401C16094F83C00042804D003203A
:1024600084F83C000020F8BD0120F9E77047FEF732
:1024700079BD30B59BB028216846FDF7A8FE142130
:1024800015A8FDF7A4FE2C210AA8FDF7A0FE012146
:102490000804CDE900100024029402250491CDE93E
:1024A00007504FF4E01009906846FEF7E9FF08B1C5
:1024B000FDF7CCFF0F20CDE915054FF48065CDE980
:1024C0001745022115A81994FEF7D6FE08B1FDF7AD
:1024D000BDFF40F682000A900D944FF02840CDE9F0
:1024E00011400AA8FEF7E0FD08B1FDF7AFFF28464E
:1024F000FEF7C6FD1BB030BD1448016841F4700101
:1025000001601348016841F0010101604168114A0E
:10251000114041600168104A11400160016821F4D6
:1025200080210160416821F4FE014160C16A21F00F
:102530000F01C162016B094A1140016300218160F2
:102540000249C003803908607047000088ED00E050
:10255000001002400CC07FF8FFFFF6FECCFC00FF2D
:1025600090F82410C90706D001684A68836A22F4EB
:1025700000321A434A6090F82410890706D5016892
:102580004A68C36A22F480321A434A6090F82410E1
:10259000490706D501684A68036B22F480221A4372
:1025A0004A6090F82410090706D501684A68436B11
:1025B00022F400421A434A6090F82410C90606D556
:1025C00001688A68836B22F480521A438A6090F80B
:1025D0002410890606D501688A68C36B22F400526C
:1025E0001A438A6090F82410490611D501684A6898
:1025F000036C22F480121A434A60016CB1F5801F0B
:1026000006D101684A68436C22F4C0021A434A604A
:1026100090F82410090606D501684A68806C22F4F7
:10262000002202434A607047F8B500260446C66699
:10263000FEF792FC0546206800686FF07E470007B1
:1026400008D52B4600224FF400112046009700F0D9
:10265000DDF860B92068006840070AD52B460022E3
:102660004FF480012046009700F0D0F808B1032015
:10267000F8BD202084F8690084F86A0084F8686056
:102680000020F8BD2DE9F041044610202369A2681E
:10269000E6691A436369002133431A4323680D46F0
:1026A0001E6849F20C67BE4316431E6022685368D9
:1026B000E66823F4405333435360236AA2691A4304
:1026C00023689E6826F4306616439E60494F226850
:1026D000494B0603BA420CD11B6B13F0030306D01F
:1026E000012B2BD0022B2BD0032B2AD124E001204D
:1026F00027E0424FBA420CD11B6B13F4403319D080
:10270000B3421BD0B3F5003F1AD0B3F5403F18D108
:1027100012E03B4FBA4214D11B6B13F4402309D093
:10272000B3F5802F0AD0B3F5002F09D0B3F5402FB1
:1027300007D101E0002004E0022002E0042000E0D4
:102740000820E7694FF400439F4226D109281DD293
:10275000DFE800F00508121C151C1C1C1800FEF711
:102760002DFE01E0FEF742FE4100606801EB5001E2
:10277000B1FBF0F081B20AE022496068F6E7FEF7AB
:102780004DFEF1E7606806EB5001F1E7012521F00D
:102790000F00C1F3420108431CE0092825D2DFE8FD
:1027A00000F005080B24102424241C00FEF706FE6C
:1027B00009E0FEF71BFE06E01349606801EB5001DB
:1027C0000EE0FEF72BFE0146606801EB5001B1FB05
:1027D000F0F080B22168C86008E0606803EB500147
:1027E000B1FBF0F080B2D06000E001252846BDE8E2
:1027F000F081000000380140001002400044004019
:10280000004800400024F40000127A002DE9F04155
:10281000984617460E460446069D1DE0681C1BD0D0
:102820002DB1FEF799FBA0EB0800A84214D920684F
:10283000016821F4D07101602068816821F00101F4
:102840008160202084F8690084F86A00002084F800
:1028500068000320BDE8F0812068C06936EA000006
:1028600004D00020B842D9D00020F3E70120F9E7D6
:10287000FEE702E008C8121F08C1002AFAD170471B
:102880007047002001E001C1121F002AFBD17047F0
:1028900008B5FEF76FFBFFF7ECFDFFF7FDFB4448C3
:1028A000416941F0020141614069002200F00200EB
:1028B000009011463A20FEF7B1FB3A20FEF7A2FB4A
:1028C000002211463B20FEF7A9FB3B20FEF79AFBB6
:1028D000FFF7A6FBFFF768FCFFF71CFC002135485B
:1028E000FFF7C9F808B1FDF7B1FD4FF0FF384146D9
:1028F0003048FFF783FA08B1FDF7A8FD2D494FF4E2
:102900000072F8312B48FFF7C7F908B1FDF79EFDBB
:1029100028483038FDF7A0FD08B1FDF797FDFDF719
:10292000D9FC254E254DA6F500772868A8612148D9
:102930003038FEF729F90028F9D11E4841463038D1
:10294000FEF784F81B483038FDF743FF6A68A96931
:102950002C469142E9D0D4F808200021D4F800C0D8
:1029600056F82130634511D0D4F800C00CF1010CA9
:1029700063450BD0D4F800C00CF1020C634505D0C0
:10298000D4F800C00CF1030C634500D10A46491C81
:10299000FF29E3DDA26037F812108142084602DD0C
:1029A000FFF770FC01E0FFF731FCA0696060BCE755
:1029B000001002405C000020C02B00080000002036
:1029C000DC00E800F40000010C01180124013001D2
:1029D0003C014801540160016C01780184019001BF
:1029E0009C01A801B401C001CC01D801E401F001AF
:1029F000FC010802140220022C0238024402500298
:102A00005C026802740280028C029802A402B00286
:102A1000BC02C802D402E002EC02F8020403100374
:102A20001C032803340340034C035803640370035E
:102A30007C0388039403A003AC03B803C403D0034E
:102A4000DC03E803F40300040C0418042404300439
:102A50003C044804540460046C0478048404900426
:102A60009C04A804B404C004CC04D804E404F00416
:102A7000FC040805140520052C05380544055005FF
:102A80005C056805740580058C059805A405B005EE
:102A9000BC05C805D405E005EC05F80504061006DC
:102AA0001C062806340640064C06580664067006C6
:102AB0007C0688069406A006AC06B806C406D006B6
:102AC000DC06E806F40600070C07180724073007A1
:102AD0003C074807540760076C077807840790078E
:102AE0009C07A807B407C007CC07D807E407F0077E
:102AF000FC070808140820082C0838084408500867
:102B00005C086808740880088C089808A408B00855
:102B1000BC08C808D408E008EC08F8080409100943
:102B20001C092809340940094C095809640970092D
:102B30007C0988099409A009AC09B809C409D0091D
:102B4000DC09E809F409000A0C0A180A240A300A08
:102B50003C0A480A540A600A6C0A780A840A900AF5
:102B60009C0AA80AB40AC00ACC0AD80AE40AF00AE5
:102B7000FC0A080B140B200B2C0B380B440B500BCE
:102B80005C0B680B740B800B8C0B980BA40BB00BBD
:102B9000BC0BC80BD40BE00BEC0BF80B040C100CAB
:102BA0001C0C280C340C400C4C0C580C640C700C95
:102BB0007C0C880C940CA00CAC0CB80CC40CD00C85
:102BC000C02FC819C42FC819C82FC819CC2FC819AD
:102BD000D02FC819D42FC819D82FC819DC2FC8195D
:102BE000E02FC819E42FC819E82FC819EC2FC8190D
:102BF000F02FC819F42FC819F82FC819FC2FC819BD
:102C00000030C8190430C8190830C8190C30C81968
:102C10001030C8191430C8191830C8191C30C81918
:102C20002030C8192430C8192830C8192C30C819C8
:102C30003030C8193430C8193830C8193C30C81978
:102C40004030C8194430C8194830C8194C30C81928
:102C50005030C8195430C8195830C8195C30C819D8
:102C60006030C8196430C8196830C8196C30C81988
:102C70007030C8197430C8197830C8197C30C81938
:102C80008030C8198430C8198830C8198C30C819E8
:102C90009030C8199430C8199830C8199C30C81998
:102CA000A030C819A430C819A830C819AC30C81948
:102CB000B030C819B430C819B830C819BC30C819F8
:102CC000C030C819C430C819C830C819CC30C819A8
:102CD000D030C819D430C819D830C819DC30C81958
:102CE000E030C819E430C819E830C819EC30C81908
:102CF000F030C819F430C819F830C819FC30C819B8
:102D00000031C8190431C8190831C8190C31C81963
:102D10001031C8191431C8191831C8191C31C81913
:102D20002031C8192431C8192831C8192C31C819C3
:102D30003031C8193431C8193831C8193C31C81973
:102D40004031C8194431C8194831C8194C31C81923
:102D50005031C8195431C8195831C8195C31C819D3
:102D60006031C8196431C8196831C8196C31C81983
:102D70007031C8197431C8197831C8197C31C81933
:102D80008031C8198431C8198831C8198C31C819E3
:102D90009031C8199431C8199831C8199C31C81993
:102DA000A031C819A431C819A831C819AC31C81943
:102DB000B031C819B431C819B831C819BC31C819F3
:102DC000C031C819C431C819C831C819CC31C819A3
:102DD000D031C819D431C819D831C819DC31C81953
:102DE000E031C819E431C819E831C819EC31C81903
:102DF000F031C819F431C819F831C819FC31C819B3
:102E00000032C8190432C8190832C8190C32C8195E
:102E10001032C8191432C8191832C8191C32C8190E
:102E20002032C8192432C8192832C8192C32C819BE
:102E30003032C8193432C8193832C8193C32C8196E
:102E40004032C8194432C8194832C8194C32C8191E
:102E50005032C8195432C8195832C8195C32C819CE
:102E60006032C8196432C8196832C8196C32C8197E
:102E70007032C8197432C8197832C8197C32C8192E
:102E80008032C8198432C8198832C8198C32C819DE
:102E90009032C8199432C8199832C8199C32C8198E
:102EA000A032C819A432C819A832C819AC32C8193E
:102EB000B032C819B432C819B832C819BC32C819EE
:102EC000C032C819C432C819C832C819CC32C8199E
:102ED000D032C819D432C819D832C819DC32C8194E
:102EE000E032C819E432C819E832C819EC32C819FE
:102EF000F032C819F432C819F832C819FC32C819AE
:102F00000033C8190433C8190833C8190C33C81959
:102F10001033C8191433C8191833C8191C33C81909
:102F20002033C8192433C8192833C8192C33C819B9
:102F30003033C8193433C8193833C8193C33C81969
:102F40004033C8194433C8194833C8194C33C81919
:102F50005033C8195433C8195833C8195C33C819C9
:102F60006033C8196433C8196833C8196C33C81979
:102F70007033C8197433C8197833C8197C33C81929
:102F80008033C8198433C8198833C8198C33C819D9
:102F90009033C8199433C8199833C8199C33C81989
:102FA000A033C819A433C819A833C819AC33C81939
:102FB000B033C819B433C819B833C819BC33C819E9
:102FC00002030405060708090A0B0C0D0E0F10106A
:102FD0000102030405060708090A0B0C0D0E0F1069
:102FE00000000000000000000102030406070809B9
:102FF0000000000001020304183000080000002057
:103000002C00000072280008443000082C0000202A
:103010002C0D0000822800080000000000000000C5
:1030200000000000000000000000000000000000A0
:10303000000000000100000010000000000000007F
:0430400000127A0000
:040000050800018965
:00000001FF
