:020000040800F2
:10000000C00D00209D010008BF1F0008F51D00085D
:10001000BD1F0008FD02000849250008000000007F
:100020000000000000000000000000004521000862
:100030002F04000800000000E11F0008472100080D
:10004000B7010008B7010008B7010008B7010008B0
:10005000B7010008B7010008B7010008B7010008A0
:10006000B7010008B7010008B7010008B701000890
:10007000B7010008B7010008B7010008B701000880
:10008000B7010008B701000835020008B7010008F1
:10009000B7010008B7010008B7010008B701000860
:1000A000B7010008B7010008B7010008B701000850
:1000B000B7010008B7010008B7010008B701000840
:1000C000B7010008B7010008B7010008B701000830
:1000D000B7010008B7010008B7010008B701000820
:1000E000B7010008B7010008B7010008B701000810
:1000F000B7010008B7010008000000000000000080
:100100000000000000000000B7010008B70100086F
:100110000000000000000000B7010008B70100085F
:10012000B7010008B7010008FF020008010300083A
:10013000B7010008B7010008B7010008B7010008BF
:10014000B7010008000000000000000000000000EF
:10015000000000000000000000000000000000009F
:100160000000000000000000B7010008B70100080F
:10017000B701000800000000B701000800000000FF
:1001800000000000B7010008DFF80CD000F040F8D4
:1001900000480047F5260008C00D002006488047AB
:1001A00006480047FEE7FEE7FEE7FEE7FEE7FEE75C
:1001B000FEE7FEE7FEE7FEE7D1210008890100081F
:1001C000D2B201E000F8012B491EFBD27047002299
:1001D000F6E710B513460A4604461946FFF7F0FF46
:1001E000204610BD30B50B460146002020220124D8
:1001F00009E021FA02F59D4205D303FA02F5491BF5
:1002000004FA02F52844151EA2F10102F1DC30BD0A
:10021000064C074D06E0E06840F0010394E8070053
:1002200098471034AC42F6D3FFF7B2FF1828000805
:1002300038280008014800F0BEBA00001400002071
:1002400070B5044600688168C943C9071CD181683C
:1002500021F00101816000F08FFD05460FE000BF35
:1002600000F08AFD401B022809D9A06A40F0100066
:10027000A062E06A40F00100E062012070BD2068E9
:100280008068C043C007EBD0002070BDF8B50026E1
:100290000446009600688168C943C90728D0816870
:1002A00041F001018160134813490068B0FBF1F08F
:1002B00000E0401E00900028FBD100F05DFD0546E7
:1002C00011E000BF00F058FD401B02280BD9A06AC6
:1002D00040F01000A062E06A40F00100E06284F8A3
:1002E00024600120F8BD20688068C043C007E9D1C0
:1002F0000020F8BD1000002040420F00FEE77047CC
:1003000010B52D4800F0A8FB2B48443801F0A4FBA1
:10031000294AB43210689FED2A1A00B200EE100A82
:10032000284B4FF4FA74F8EEC00A9FED240A60EEF1
:10033000800AC0EE811AFDEEE10A10EE900A00B2CA
:1003400000EE900A0120F8EEE00AC3ED000A00BFBB
:1003500052F8201009B200EE901AF8EEE00A60EEB2
:10036000800AC0EE811AFDEEE10AD3ED001A10EE0C
:10037000901A09B200EE901AF8EEE00AF4EEE10AE3
:10038000F1EE10FA05DD00EE901AF8EEE00AC3ED8A
:10039000000A401C80B2A042DAD307494FF47A72B7
:1003A000B431A1F1F80001F011FB002803D0BDE841
:1003B000104000F03DB810BD8800002000404E45C0
:1003C00000FEFF46000000200B4B016814229942FA
:1003D00007D20A4B1944B1FBF2F1890001640849C4
:1003E00008E0054B5B421944B1FBF2F1890001645E
:1003F00001490839C163704708040240F8FFFDBF96
:100400000000024030B590F840500124AC40C56B6C
:100410006C60046863604368102B036803D09960C4
:100420000068C26030BD9A600068C16030BD70472E
:10043000012202214FF0904000F098BCF8B5002551
:100440000446009590F82400012808D0012084F883
:1004500024002046FFF7F4FE060002D045E002200B
:10046000F8BDA06A20F4885040F00200A062009815
:1004700001E0401C0090FF28FBD92046FFF706FF53
:100480002068816841F00801816000F075FC074632
:1004900005E000BF00F070FCC01B0A2811D82068DE
:1004A00080680007F6D42068816841F0040181600B
:1004B00000F062FC07460EE000F05EFCC01B0A285C
:1004C00009D9A06A20F0020040F01000A06284F870
:1004D00024500120F8BD206880684007ECD4A06A51
:1004E00020F0020040F00100A06284F82450304661
:1004F000F8BD0000F8B50022009290F8244083680F
:100500001746012C1CD0012480F82440D3B14D683B
:100510000B691F249D4226D81E055B1BC3F10303F4
:100520000D6803EB83039D40A6F580162E439C4087
:10053000036844F440159C6BAC4326439E631EE065
:100540000220F8BD4B68012B05D0826A42F02002E0
:100550008262012213E003689C6B0D686FF315043F
:1005600044EAC5340AE05B1BC3F1030303EB8303D6
:100570009C40036844F440159C6BAC439C63036847
:100580009C68E443E40706D09C6847F20105AC434D
:10059000CD692C439C608B69012B08D1CB69B3F5E5
:1005A000E04F08D0826A42F02002826201224B6949
:1005B000012B06D00CE003685C6844F480645C6046
:1005C000F5E78B69A3B1826A42F0200282620122C0
:1005D0000B68072405680A2B10D9EE680A3B03EB69
:1005E00043039C40A6438C689C402643EE600EE08B
:1005F00003685C6844F480545C60E9E72E6903EBAF
:1006000043039C40A6438C689C4026432E614B6864
:10061000012B12D0022B18D0032B03681DD01C6AAB
:10062000CD686FF30B042C431C620B68102B1BD09E
:10063000112B19D0122B30D034E003685C69CD68DF
:100640006FF30B042C435C61EFE703689C69CD6892
:100650006FF30B042C439C61E7E7DC69CD686FF313
:100660000B042C43DC61E0E703689C68240219D486
:100670009C6844F400049C600968102912D10B495D
:100680000B4B0968B1FBF3F101EB8101490000E07C
:10069000491E00910029FBD104E006490B6843F094
:1006A00080730B6080F824701046F8BD10000020A5
:1006B00040420F000000014070470000F8B50024E0
:1006C000009490F824202546012A12D0012280F8B7
:1006D00024204A681F23072A0DD20668776B521E12
:1006E00002EB820293409F430B6893401F43776362
:1006F00019E00220F8BD06680D2A0AD2376BD21F16
:1007000002EB820293409F430B6893401F43376381
:1007100009E0F76A0D3A02EB820293409F430B68AF
:1007200093401F43F7620A68072306680A2A0AD91A
:10073000F7680A3A02EB420293409F438B6893406A
:100740001F43F76008E0376902EB420293409F4382
:100750008B6893401F4337610A68102A04D0112A1E
:1007600002D0122A16D01AE00268936843F40003FC
:1007700093600968102912D10B490C4A0968B1FB32
:10078000F2F101EB8101490000E0491E00910029CE
:10079000FBD104E006490A6842F080720A6080F8E2
:1007A00024502046F8BD00001000002040420F00F9
:1007B00000000140704710B5044600684168890692
:1007C00026D50168890723D5A16AC90603D4A16A81
:1007D00041F40071A1628168C1F34241072910D13F
:1007E000E16871B9416821F020014160A06A20F4FC
:1007F0008070A062A06AC00403D4A06A40F0010027
:10080000A0622046FFF7D6FF21686FF01200086053
:100810002068416809062ED5016849072BD5A16AD1
:10082000C90603D4A16A41F40051A1628168C1F3F1
:100830000231072909D04168490515D48168C1F3FF
:100840004241072910D1E16871B9416821F0800166
:100850004160A06A20F48050A062A06AC00503D461
:10086000A06A40F00100A0622046FFF725FF216842
:100870006FF00C0008602068416849060DD50068DB
:10088000C0070AD0A06A40F48030A062204600F081
:1008900093F821686FF00100086010BD2DE9F04168
:1008A0004FF0000704003D467ED0A06A002628B91C
:1008B000E66284F82460204600F080F82046FFF7C6
:1008C000BFFCA16AC90600D420B1A06A40F01000A4
:1008D000A06269E0A16A21F4885141F00201A1629D
:1008E0006268E169E3680A4347EA43010A43A16891
:1008F0004FF48077B94209D0012907D05FF0000199
:10090000D4F814C0BCF1010F02D00AE03946F7E771
:10091000F3B1A36A43F02003A362E36A43F0010347
:10092000E3622368D3F804C02CF4694C4CEA010C50
:10093000C3F804C021688B68DFF870C003EA0C03B9
:1009400013438B60A168B9420BD0012909D00CE098
:10095000DFF85CC0A3690CEB43330B4343F4006145
:10096000DFE7218A0D05A5F580152168CB6A23F400
:1009700070032B43CB62216889680E4B194091426A
:1009800008D1E662A16A21F0020141F00101A162F1
:10099000BDE8F081A06A20F0020040F01000A062E3
:1009A000E06A40F00100E0620120F1E7FDF7E1FFBD
:1009B00000E0FFFFFE0E1FFF7047000010B586B07D
:1009C000044614216846FFF702FC15492068884256
:1009D00023D11448816941F400718161816901F476
:1009E00000710591416941F40031416140696946F6
:1009F00000F4003005902820009003200190002092
:100A000002904FF0904000F0EDF8002211461220C5
:100A100000F014FA122000F005FA06B010BD000034
:100A2000002401400010024001680A6822F00E0212
:100A30000A6001680A6822F001020A6090F840200A
:100A4000C36B012101FA02F25A6080F821100021E3
:100A500080F8201008467047F0B4C16B0D6801683B
:100A60000C68066C042202FA06F32B420FD06307CF
:100A70000DD50B689B0603D40B6823F004030B60B1
:100A800090F840108A40C16B4A60C16A1BE00223A3
:100A900003FA06F72F424FF0000C4FF0010216D078
:100AA000A70714D50C68A40605D40C6824F00A0422
:100AB0000C6080F8212090F840108B40C16B4B6097
:100AC00080F820C0816A002918D0F0BC08470823AC
:100AD000B3402B4212D0230710D50B6823F00E032E
:100AE0000B6090F84010C36B02FA01F15960826309
:100AF00080F8212080F820C0016BE4E7F0BC70474B
:100B000070B5040021D0022084F821002268116809
:100B100043F6F0708143D4E901031843D4E9033567
:100B20002B43184363691843A3691843E3691843C7
:100B3000084310602046FFF747FC0020A063012116
:100B400084F8211084F8200070BD012070BD70B5BC
:100B5000044690F82000002501280CD0012084F8DC
:100B6000200094F821600020012E06D084F8200097
:100B70000225284670BD022070BD022684F821603F
:100B8000A0632068066826F0010606602046FFF78D
:100B900039FCE06A00282068016802D041F00E01AB
:100BA00006E041F00A0101602068016821F00401BB
:100BB00001602068016841F001010160D9E700008F
:100BC00070B5044600F0D8F80546601C02D0044811
:100BD0000078044400F0D0F8401BA042FAD370BD66
:100BE000040000202DE9F84FDFF864B100234FF036
:100BF000010C4FF0030A4FF00F090BF1040EA0E0B7
:100C00000CFA03F6324072D04C68022C01D0122C40
:100C10000ED1DC0800EB8408D8F820405D07EF0E09
:100C200009FA07F5AC430D69BD402543C8F82050CB
:100C300007685D0091F804800AFA05F408F00308DB
:100C4000A74308FA05F848EA0708C0F800804F688B
:100C5000012F05D0022F03D0112F01D0122F11D157
:100C60008768D1F80C80A74308FA05F848EA070816
:100C7000C0F808804768B7430E79C6F300169E4057
:100C80003E434660C668A6438C68AC403443C460AB
:100C90004C68E40054D52F4CA56945F00105A561C9
:100CA000A46923F0030504F0010400942A4C2E19D2
:100CB000B4689D072F0F09FA07F5AC43B0F1904FC8
:100CC00004D0264DA84203D1012512E0002510E0F2
:100CD000234DA84201D102250BE0224DA84201D1AB
:100CE000032506E0204DA84202D1042501E027E0BB
:100CF0000525BD402543B560DBF800405D464E68E4
:100D00009443F60300D514432C60DEF8004075468A
:100D10004E689443B60300D514432C600C4D08353F
:100D20002C684E689443F60200D514432C60084D9D
:100D30000C352C684E689443B60200D514432C60E1
:100D40005B1C0A6832FA03F47FF45AAFBDE8F88FEF
:100D5000000401400010024000000140000400486F
:100D600000080048000C0048001000480AB18161EA
:100D7000704781627047000001488068704700003A
:100D800004000020024881680278114481607047A5
:100D900004000020074810B5016841F0100101600F
:100DA000032000F06BF8002000F006F800F024F8B3
:100DB000002010BD0020024070B50D4D04464FF4D8
:100DC0007A712878B1FBF0F00A490968B1FBF0F0BC
:100DD00000F02CFF48B9102C07D200222146501EEB
:100DE00000F02CF800206C6070BD012070BD000088
:100DF0000400002010000020094808B5816941F076
:100E000001018161816901F001010091C16941F035
:100E10008051C161C06900F08050009008BD0000A1
:100E20000010024000F01F020121914040098000A3
:100E300000F1E020C0F8001170470000F0B40E4B44
:100E40001B680C46C3F30223C3F10705042D00D928
:100E50000425191D072901D2002300E0DB1E01260D
:100E600006FA05F1491E214099409E40761E164023
:100E70003143F0BC01F0A4B80CED00E0064900F0ED
:100E8000070208684FF6FF03184040EA0220034AB1
:100E900010430860704700000CED00E00000FA0508
:100EA000074908B5CA6942F08052CA61C96901F0B0
:100EB0008051009103490A6802430A6008BD00009E
:100EC00000100240007000402DE9F84F0546006810
:100ED0006E4CC0036FD5E0690026C00008D4E069FD
:100EE00040F08050E061E069012600F08050009001
:100EF00067480168C90512D40168804641F48071D1
:100F00000160FFF739FF074605E000BFFFF734FF38
:100F1000C01B642835D8D8F80000C005F6D5206A73
:100F200010F4407053D0A98801F4407181424ED032
:100F3000206A4FF4803191FAA1F2B2FA82F297005E
:100F4000544A4FF00108174420F44070C7F8008459
:100F500091FAA1F1B1FA81F102EB81010023C1F80C
:100F600000342062C00732D0FFF706FF074641F287
:100F7000883A4FF0020907E0FFF7FEFEC11B51451A
:100F800002D90320BDE8F88F99FAA9F1B1FA81F1ED
:100F900041F040014846B8EB511F01D121680CE0F7
:100FA00090FAA0F1B1FA81F141F04001B0EB511F8C
:100FB00002D1216A01E015E0616A99FAA9F0B0FA5C
:100FC00080F000F01F0008FA00F21142D4D0206A2D
:100FD000696820F44070084320621EB1E06920F087
:100FE0008050E0612878C00705D0206BA96820F008
:100FF0000300084320632878800705D5206BE96843
:1010000020F44030084320632878400705D5206B42
:10101000296920F44020084320632878800605D5FC
:10102000206B696920F01000084320632868800362
:1010300005D56068A96A20F48000084360602878BC
:10104000400605D5206BA96920F0200008432063E5
:101050002878000605D56068E96920F44040084317
:1010600060602888000505D56068296A20F078400E
:10107000084360602888400505D5206B696A20F028
:1010800040000843206300207CE70000001002407D
:1010900000700040000042422DE9F0470F46050075
:1010A00069D04A4E306800F00700B84209D2306873
:1010B00020F0070038433060306800F00700B84285
:1010C00059D12878424C800705D56068A96820F07E
:1010D000F000084360602878C0073DD069680120AF
:1010E00001290DD0022923D05FF0020393FAA3F265
:1010F000B2FA82F242F02002520904D0226803E0E0
:101100004FF40033F2E7626A93FAA3F3B3FA83F37E
:1011100003F01F03984002422DD0606820F00300C6
:1011200008436060FFF728FE804641F288390CE0F2
:101130004FF00073DAE700BFFFF71EFEA0EB0801D7
:10114000494502D90320BDE8F0876068696800F06E
:101150000C00B0EB810FEFD1306800F00700B8420F
:101160000BD9306820F0070038433060306800F059
:101170000700B84201D00120E5E72878400705D5EF
:101180006068E96820F4E060084360602878000740
:1011900006D56068296920F4605040EAC1006060AB
:1011A00000F04CF86168F02292FAA2F201F0F0012E
:1011B000B2FA82F2D140074A515CC8400649086041
:1011C0000020FFF7F9FD0020BDE7000000200240ED
:1011D00000100240002800081000002008480949BB
:1011E000006849684FF4E06292FAA2F201F4E0610B
:1011F000B2FA82F2D140044A515CC8407047000004
:10120000100000200010024010280008084809497A
:10121000006849684FF4605292FAA2F201F46051FA
:10122000B2FA82F2D140044A515CC84070470000D3
:10123000100000200010024010280008144B10B5C8
:101240005A68144802F00C0104291DD008291BD14A
:101250004FF4701494FAA4F402F47011B4FA84F404
:10126000E1400D4CDB6A615C0F2494FAA4F403F0B6
:101270000F03B4FA84F4E340074C1034D203E35C68
:1012800003D5B0FBF3F0484310BD0448484310BDFC
:101290000010024000127A00E027000800093D001B
:1012A0002DE9F84F040071D02078FB4DC0074FF0B6
:1012B000010625D068687704C0F38100012807D0B3
:1012C0006868C0F3810002281BD16868C00318D584
:1012D00097FAA7F0B0FA80F040F02000400901D062
:1012E000286800E0686A97FAA7F1B1FA81F101F085
:1012F0001F0106FA01F1084265D060680028D2D0CB
:1013000061E06068B0F5803F0BD010B1B0F5A02F60
:1013100017D0286820F480302860286820F48020C6
:1013200002E0286840F480302860E86AA16820F074
:101330000F000843E862606820B3FFF71DFD804698
:101340000AE0286840F480202860EAE7FFF714FDEF
:10135000A0EB0800642872D897FAA7F0B0FA80F0E2
:1013600040F02000400901D0286800E0686A97FA40
:10137000A7F1B1FA81F101F01F0106FA01F108426B
:10138000E4D020E0FFF7F8FC804607E0C7E000BFAC
:10139000FFF7F2FCA0EB08006428DCD897FAA7F06E
:1013A000B0FA80F040F02000400901D0286800E049
:1013B000686A97FAA7F1B1FA81F101F01F0106FA04
:1013C00001F10842E4D12078DFF8D08280074FF0A5
:1013D000000A4FF0020759D568684FF0F80B10F07B
:1013E0000C0F07D06868C0F3810002281BD1686821
:1013F000C00318D497FAA7F0B0FA80F040F02000AC
:10140000400901D0286800E0686A97FAA7F1B1FAAC
:1014100081F101F01F0106FA01F108422BD0206989
:1014200001287CD127E0206988B396FAA6F0B0FAAB
:1014300080F048F82060FFF79FFC814606E055E108
:10144000FFF79AFCA0EB0900022884D897FAA7F0CE
:10145000B0FA80F040F02000400901D0286800E098
:10146000686A97FAA7F1B1FA81F101F01F0106FA53
:1014700001F10842E4D028689BFAABF26169B2FA44
:1014800082F220F0F80091400843286025E0FFE751
:1014900096FAA6F1B1FA81F148F821A0FFF76CFCA9
:1014A000814605E0FFF768FCA0EB09000228CCD8D4
:1014B00097FAA7F0B0FA80F040F02000400901D080
:1014C000286800E0686A97FAA7F1B1FA81F101F0A3
:1014D0001F0106FA01F10842E4D1207800076AD51D
:1014E000A069A0B396FAA6F0B0FA80F008EB8000ED
:1014F000C0F88064FFF740FC814605E0FFF73CFC44
:10150000A0EB09000228A0D897FAA7F0B0FA80F063
:1015100040F06000B6EB501F02D128680CE077E184
:1015200097FAA7F0B0FA80F040F06000B7EB501FD8
:1015300001D1286A00E0686A97FAA7F1B1FA81F14F
:1015400001F01F0106FA01F21042D7D033E0FFE7A5
:1015500096FAA6F0B0FA80F008EB8000C0F880A4FC
:10156000FFF70AFC814605E0FFF706FCA0EB090047
:1015700002289CD897FAA7F0B0FA80F040F06000FB
:10158000B6EB501F01D128680BE097FAA7F0B0FA2C
:1015900080F040F06000B7EB501F01D1286A00E0F6
:1015A000686A97FAA7F1B1FA81F101F01F0106FA12
:1015B00001F21042D8D12078400774D5E8694FF085
:1015C0000009C00009D4E86940F08050E861E8698A
:1015D0004FF0010900F08050009031480168C905C2
:1015E00012D4016841F480710160FFF7C5FB8346A6
:1015F00006E000BFFFF7C0FBA0EB0B00642875D826
:1016000027480068C005F5D5E06801280AD008B170
:10161000052811D0286A20F001002862286A20F0ED
:10162000040002E0286A40F001002862E068C8B3C4
:10163000FFF7A2FB83460DE0286A40F00400286211
:10164000F0E700BFFFF798FBA0EB0B0141F28830F9
:1016500081424BD897FAA7F0B0FA80F040F04000F2
:10166000B6EB501F01D128680BE097FAA7F0B0FA4B
:1016700080F040F04000B7EB501F01D1286A00E035
:10168000686A97FAA7F1B1FA81F101F01F0106FA31
:1016900001F21042D6D035E0001002400000424274
:1016A0000070004000E034E0FFF766FB834607E08F
:1016B000FFF762FBA0EB0B0141F28830814215D8A5
:1016C00097FAA7F0B0FA80F040F04000B6EB501F58
:1016D00001D128680CE097FAA7F0B0FA80F040F04A
:1016E0004000B7EB501F02D1286A01E083E0686A2E
:1016F00097FAA7F1B1FA81F101F01F0106FA01F2A0
:101700001042D5D1B9F1000F03D0E86920F0805024
:10171000E861E06980B36968C1F38101022977D08B
:101720004FF080714F00022809D091FAA1F0B0FA71
:1017300080F048F820A0FFF71FFB04465EE050460B
:101740008A4691FAA1F1B1FA81F1C14648F8210027
:10175000FFF712FB804605E0FFF70EFBA0EB080049
:10176000022848D897FAA7F0B0FA80F040F020009D
:10177000400902D0286801E056E0686A97FAA7F1AC
:10178000B1FA81F101F01F0106FA01F10842E3D13B
:10179000D4E908100843696821F4741108436860AB
:1017A0009AFAAAF0B0FA80F049F82060FFF7E4FA5C
:1017B000044604E0FFF7E0FA001B02281BD897FA62
:1017C000A7F0B0FA80F040F02000400901D028686E
:1017D00000E0686A97FAA7F1B1FA81F101F01F0100
:1017E00006FA01F10842E5D01EE000BFFFF7C4FA97
:1017F000001B022802D90320BDE8F88F97FAA7F052
:10180000B0FA80F040F02000400902D0286801E0E2
:101810000CE0686A97FAA7F1B1FA81F101F01F01B3
:1018200006FA01F10842E1D10020E5E70120E3E7F3
:101830002DE9F041044690F83C00002516460F467D
:10184000012801D0012520E0204600F0DBFB20B17B
:10185000FF2084F83C00032517E00D4887420FD095
:101860002068390C026C1F2303EA810103238B409B
:101870009A4302642068026C8E403243026401E0A5
:1018800020684664204600F0D6FB2846BDE8F0817B
:101890000001080070B5044690F83C0000250E4693
:1018A000012802D00125284670BD204600F0AAFB81
:1018B00020B1FF2084F83C000325F4E7206841684C
:1018C00021F00601416020684168314341602046B3
:1018D00000F0B1FB2068416841F010014160022036
:1018E00084F83C00DFE7704770B5040044D0002066
:1018F0000125A061C4E90705C4E909506903C4E9E9
:101900000B016063A0632064204600F0C1F82068EA
:10191000016821F4E0510160E168606808432168D2
:101920000A68104308602068416821F080714160B6
:1019300020684168A268114341601048016822692B
:1019400001F4407191420AD0016821F440710160B4
:1019500001682269114301600220FFF731F9206814
:10196000416841F001014160206881680904FCD4AC
:1019700084F83C50002070BD012070BD0060014023
:1019800030B590F83C300024DBB1FF2B19D005684E
:101990008BB26B610368012A5D680FD025F02005CA
:1019A0005D60C26100228BB21146DD0700D0521C7F
:1019B0005B08491C0929F8D3026203E045F02005C1
:1019C000EEE70124204630BD7047704770B50446ED
:1019D00000680D460068800301D5012070BDE06AF3
:1019E00030B9E06920B96069806990B12028F4D0ED
:1019F00094F83C00012801D00328EED16169134816
:101A0000886261691248086360698169202904D08D
:101A100005E0206A9042E0D3EAE70E49C1622068FF
:101A2000016841F480310160216813462A46603123
:101A30006069FFF78CF818B1FF2084F83C00CCE710
:101A40002046BDE8704000F0FCBA0000F11F00081D
:101A5000E31F0008FB1F000810B5044690F83C0087
:101A6000042803D0052801D0012010BD206801689A
:101A700021F4803101606069FEF7D6FF18B1FF20C4
:101A800084F83C00F0E72046BDE8104000F00ABBB7
:101A9000F0B587B0054614216846FEF798FB1B4950
:101AA000286888422FD11A49886940F000708861FF
:101AB000886900F000700590486940F400104861A2
:101AC00048694F1500F40010009705900320002688
:101AD000CDE9010669460F48FFF784F80F4C0E4820
:101AE000C4E900068020C4E902600001C4E9047072
:101AF0002020C4E906062046FFF702F808B1FEF7E9
:101B000097FC6C61656207B0F0BD000000640140A5
:101B100000100240001000484404024088000020E9
:101B200070B5044690F83C000D46022801D0012013
:101B300070BDFFF721F9064607E0681C05D0FFF7E6
:101B40001BF9801BA8420ED86DB120688068C007C1
:101B5000F3D02068C16841F00101C160012084F820
:101B60003C00002070BD032070BD2DE9F041064609
:101B700090F83C00002514460F46012801D00125AD
:101B800018E0304600F03EFA20B1FF2086F83C0015
:101B900003250FE02021306801EB87010144D4E9DF
:101BA00000021043D4E902231A4310430860304670
:101BB00000F041FA2846BDE8F08170B5044690F87F
:101BC0003C0000250E46012802D00125284670BDA4
:101BD000204600F017FA20B1FF2084F83C000325CE
:101BE000F4E72068416821F04001416020684168C5
:101BF00031434160204600F01EFAE7E710B5024687
:101C0000094C13680020A34201D1012907D092F8A2
:101C10003C30012B05D0022B03D0032B01D0012037
:101C200010BDD16210BD00000060014010B5401E23
:101C3000B0F1807F01D3012010BD4FF0E02460613E
:101C40000F21601700F0BCF90020A061072020617F
:101C5000002010BD10B5040003D094F8690010B145
:101C600007E0012010BD002084F86800204600F045
:101C700027F8242084F869002068016821F0010118
:101C80000160204600F06AFB0128EBD0606A10B1C9
:101C9000204600F0D1FA2068416821F4904141606B
:101CA0002068816821F02A0181602068016841F084
:101CB000010101602046BDE8104000F021BB00009A
:101CC000F0B587B0044614216846FEF780FA19493A
:101CD000206888422BD11848C16941F40031C161A4
:101CE000C16901F400310591416941F4003141615C
:101CF000416901F400310591416941F4802141615C
:101D00004069022400F48020059004200025032669
:101D100007278DE8F10069464FF09040FEF762FF1B
:101D200010208DE8F10069460448FEF75BFF07B01C
:101D3000F0BD0000004400400010024000040048D4
:101D40002DE9F843044690F869001F4616460D46F3
:101D500020284DD1CDB1C6B194F86800012847D0F4
:101D6000012084F868004FF00008C4F86C8021203E
:101D700084F869005034FEF7FFFF24F8026B8146B7
:101D800024F852694FF4805618E00120BDE8F8832A
:101D9000B4F85200401EA4F852004B4600228021A5
:101DA0002046009700F09EFBA0B9A068B04201D188
:101DB000206988B115F8010B21680885B4F8520034
:101DC0000028E5D14B46002240212046009700F034
:101DD00089FB30B10320D9E735F8020BC0F30800C6
:101DE000EAE7202084F8690084F868800020CDE7C5
:101DF0000220CBE7FEE7000030B58BB0002408944A
:101E00000994202168460A94FEF7E1F9174816491B
:101E100001258460C4604461016005614FF4602164
:101E20004460C161FEF73AFD08B1FEF701FB0320F3
:101E3000CDE9080508A90A940C48FEF73FFC08B153
:101E4000FEF7F6FA052000900494CDE901540694BB
:101E50000594694605480394FEF74CFB002801D021
:101E6000FEF7E6FA0BB030BD00240140140000205C
:101E700010B586B014216846FEF7A9F91A484169E1
:101E800041F480014161416901F48001059141699A
:101E900041F400314161416901F40031059141692A
:101EA00041F400114161416901F40011059141695A
:101EB00041F48021416140694FF0904400F480205A
:101EC0000590002203212046FEF750FF03200090DA
:101ED00001200021CDE90101039169462046FEF76A
:101EE00081FE06B010BD0000001002407FB5002446
:101EF00021480094019402941E490394C0E90014FF
:101F00004FF440718460C0E90341C462FFF7ECFC08
:101F100008B1FEF78DFA00211748FFF74EFE08B111
:101F2000FEF786FA00211448FFF768FE08B1FEF7B5
:101F30007FFA124D012229460F48FFF721FD08B113
:101F4000FEF776FA4FF04060CDE9000402946A464D
:101F5000002109480394FFF708FE08B1FEF768FA6C
:101F6000002229460448FFF763FC002801D0FEF751
:101F70005FFA7FBD0064014044000020800007003C
:101F80000D4810B50B4901604FF4E131416000216B
:101F900081600C22C160C0E904128161C1610162EB
:101FA0004162FFF757FE002803D0BDE81040FEF75E
:101FB0003FBA10BD00440040CC000020FEE770474F
:101FC0000907090E002806DA00F00F0000F1E020F2
:101FD00080F8141D704700F1E02080F8001470476D
:101FE000704710B5406A03210164FFF77CFC10BD07
:101FF00010B5406AFFF7E8FC10BD10B5406AFFF766
:10200000E4FC10BD70B504460068016841F0004171
:102010000160FEF7B1FE054607E000BFFEF7ACFE2B
:10202000401BC82801D9032070BD206880680028A3
:10203000F4DA002070BD0068016821F00041016001
:10204000704770B50446006A6062E06A002540B1DE
:102050002046FFF7D7FF50B1FF2084F83C0003254E
:1020600017E02068416841F4004141600AE0E06AFD
:10207000012820680FD04168226B1143416020463F
:10208000FFF7D9FF94F83C00012809D0052084F817
:102090003C00284670BD016841F480410160EEE7D4
:1020A0000420F4E7F8B50446C069012806D1206889
:1020B000016E0091416821F020014160FEF75CFE55
:1020C0000546FF2605E000BFFEF756FE401BC82868
:1020D00009D8206880688004F6D4E06A90B1204670
:1020E000FFF790FF18B184F83C600320F8BDE06A68
:1020F000012820680AD0416821F4C041416020468F
:10210000FFF799FFE069012805D009E0016821F493
:1021100080410160F3E72068416841F0200141609F
:102120002068016E0091C16841F00401C16094F81B
:102130003C00042804D0032084F83C000020F8BDB3
:102140000120F9E77047FEF71DBE30B59BB028218E
:102150006846FEF73CF8142115A8FEF738F82C2144
:102160000AA8FEF734F801210804CDE90010002484
:10217000029402250491CDE907504FF4E010099034
:102180006846FFF78DF808B1FEF752F90F20CDE948
:1021900015054FF48065CDE91745022115A819945E
:1021A000FEF77AFF08B1FEF743F940F682000A9085
:1021B0000D944FF02840CDE911400AA8FEF784FEA7
:1021C00008B1FEF735F92846FEF76AFE1BB030BDB0
:1021D0001448016841F4700101601348016841F03E
:1021E000010101604168114A114041600168104AD3
:1021F00011400160016821F480210160416821F4EF
:10220000FE014160C16A21F00F01C162016B094A00
:1022100011400163002181600249C00380390860D8
:102220007047000088ED00E0001002400CC07FF80D
:10223000FFFFF6FECCFC00FF90F82410C90706D083
:1022400001684A68836A22F400321A434A6090F8AF
:102250002410890706D501684A68C36A22F48032CF
:102260001A434A6090F82410490706D501684A6865
:10227000036B22F480221A434A6090F82410090765
:1022800006D501684A68436B22F400421A434A604B
:1022900090F82410C90606D501688A68836B22F479
:1022A00080521A438A6090F82410890606D5016886
:1022B0008A68C36B22F400521A438A6090F8241093
:1022C000490611D501684A68036C22F480121A434A
:1022D0004A60016CB1F5801F06D101684A68436C01
:1022E00022F4C0021A434A6090F82410090606D569
:1022F00001684A68806C22F4002202434A607047F9
:10230000F8B500260446C666FEF736FD0546206889
:1023100000686FF07E47000708D52B4600224FF477
:1023200000112046009700F0DDF860B920680068D1
:1023300040070AD52B4600224FF480012046009723
:1023400000F0D0F808B10320F8BD202084F869001F
:1023500084F86A0084F868600020F8BD2DE9F04137
:10236000044610202369A268E6691A4363690021C4
:1023700033431A4323680D461E6849F20C67BE4377
:1023800016431E6022685368E66823F440533343C3
:102390005360236AA2691A4323689E6826F4306654
:1023A00016439E60494F2268494B0603BA420CD13E
:1023B0001B6B13F0030306D0012B2BD0022B2BD069
:1023C000032B2AD124E0012027E0424FBA420CD14E
:1023D0001B6B13F4403319D0B3421BD0B3F5003F4D
:1023E0001AD0B3F5403F18D112E03B4FBA4214D196
:1023F0001B6B13F4402309D0B3F5802F0AD0B3F53B
:10240000002F09D0B3F5402F07D101E0002004E0F0
:10241000022002E0042000E00820E7694FF40043B6
:102420009F4226D109281DD2DFE800F00508121CC2
:10243000151C1C1C1800FEF7D1FE01E0FEF7E6FE9D
:102440004100606801EB5001B1FBF0F081B20AE09D
:1024500022496068F6E7FEF7F1FEF1E7606806EBF7
:102460005001F1E7012521F00F00C1F342010843BB
:102470001CE0092825D2DFE800F005080B24102411
:1024800024241C00FEF7AAFE09E0FEF7BFFE06E0CA
:102490001349606801EB50010EE0FEF7CFFE0146E4
:1024A000606801EB5001B1FBF0F080B22168C860B8
:1024B00008E0606803EB5001B1FBF0F080B2D0603F
:1024C00000E001252846BDE8F08100000038014009
:1024D0000010024000440040004800400024F40086
:1024E00000127A002DE9F041984617460E46044640
:1024F000069D1DE0681C1BD02DB1FEF73DFCA0EB36
:102500000800A84214D92068016821F4D071016044
:102510002068816821F001018160202084F8690031
:1025200084F86A00002084F868000320BDE8F08188
:102530002068C06936EA000004D00020B842D9D033
:102540000020F3E70120F9E7FEE700000FB4084B95
:1025500010B504A902AA039800F01CF8044602A9C9
:10256000002000F0C1F8204610BC5DF814FB00000C
:10257000E926000802E008C8121F08C1002AFAD1A3
:1025800070477047002001E001C1121F002AFBD1F3
:10259000704700002DE9FF4F89B09B460446002597
:1025A00006E025280BD05A460B999047641C6D1CF9
:1025B00020780028F5D10DB02846BDE8F08F00271F
:1025C000B8460122474900E0074314F8013F203B89
:1025D00002FA03F00842F7D120782E2819D114F816
:1025E000010F47F004072A280ED06FF02F02207841
:1025F000A0F1300109290CD808EB880102EB410158
:1026000000EB0108641CF2E70A98641C50F8048B84
:102610000A9020780028CED0642808D0692806D0F7
:1026200075281ED05A460B9990476D1C58E00A99A0
:102630004FF00A0901C90A91002802DA40422D210F
:1026400002E0390504D52B218DF82010012103E08B
:10265000F90704D02021F7E78A4608AE0DE00021F3
:10266000FAE70A994FF00A0901C90A91F7E74946C2
:10267000FDF7B8FD303106F8011D0028F7D1ADEBAC
:10268000060000F12009780701D44FF00108C84581
:1026900002DDA8EB090000E000208046002706E0EC
:1026A00008A85A46C05D0B9990476D1C7F1C574582
:1026B000F6DB04E030205A460B9990476D1CB8F1C8
:1026C0000001A8F10108F5DC05E016F8010B5A46F7
:1026D0000B9990476D1CB9F10001A9F10109F4DCD7
:1026E000641C65E7092801000A68531C0B60107020
:1026F0007047000008B5FEF74DFBFFF726FDFFF71A
:10270000B7FB2F48416941F0020141614069002255
:1027100000F00200009011463A20FEF78FFB3A20AD
:10272000FEF780FB002211463B20FEF787FB3B2093
:10273000FEF778FBFFF760FBFFF722FCFFF7D6FB05
:1027400000212048FFF7A6F808B1FDF771FE4FF011
:10275000FF3421461B48FFF7E3F908B1FDF768FE97
:1027600018494FF48062F8311648FFF72FF908B185
:10277000FDF75EFE13483038FDF760FE08B1FDF747
:1027800057FE114D4FF4FA7695ED000AB5EEC00AEA
:10279000F1EE10FA01D2B1EE400A0CA1BDEEC00A72
:1027A0000E4810EE102AFFF7D1FE0C4923460F22E7
:1027B000A1F50760FFF7C4FA3046FEF701FAE3E738
:1027C0000010024044000020000000205344414417
:1027D00043203D202564200D0A0000003C09002014
:1027E00002030405060708090A0B0C0D0E0F101052
:1027F0000102030405060708090A0B0C0D0E0F1051
:1028000000000000000000000102030406070809A0
:102810000000000001020304382800080000002026
:1028200014000000742500084C2800081400002043
:10283000AC0D00008425000800000000010000002D
:0C284000100000000000000000127A00F0
:040000050800018965
:00000001FF
